{
  "abi": [
    {
      "inputs": [
        {
          "internalType": "address",
          "name": "_owner",
          "type": "address"
        }
      ],
      "stateMutability": "nonpayable",
      "type": "constructor"
    },
    {
      "inputs": [],
      "name": "balajiDeposit",
      "outputs": [],
      "stateMutability": "nonpayable",
      "type": "function"
    }
  ],
  "bytecode": {
    "object": "0x608060405234801561001057600080fd5b5060405161017f38038061017f83398101604081905261002f91610054565b600080546001600160a01b0319166001600160a01b0392909216919091179055610084565b60006020828403121561006657600080fd5b81516001600160a01b038116811461007d57600080fd5b9392505050565b60ed806100926000396000f3fe6080604052348015600f57600080fd5b506004361060285760003560e01c80630bdf63ab14602d575b600080fd5b60336035565b005b6000546040516323b872dd60e01b81523360048201526001600160a01b03909116602482015264e8d4a51000604482015273a0b86991c6218b36c1d19d4a2e9eb0ce3606eb48906323b872dd90606401600060405180830381600087803b158015609e57600080fd5b505af115801560b1573d6000803e3d6000fd5b5050505056fea26469706673582212202e5886691bd7cf813ad32d938014aaa9fbe7f62022429792041aeff8916e098264736f6c634300080f0033",
    "linkReferences": {}
  },
  "methodIdentifiers": {
    "balajiDeposit()": "0bdf63ab"
  },
  "id": 13
}